{
	"data": {
		"bytecode": {
			"linkReferences": {},
			"object": "608060405234801561001057600080fd5b506101ab806100206000396000f3fe608060405234801561001057600080fd5b50600436106100365760003560e01c80632f7643a81461003b578063c9e76a5814610045575b600080fd5b61004361004f565b005b61004d610081565b005b6040517f82b4290000000000000000000000000000000000000000000000000000000000815260040160405180910390fd5b6003600c6040517f8dea797f0000000000000000000000000000000000000000000000000000000081526004016100b992919061014c565b60405180910390fd5b6000819050919050565b6000819050919050565b6000819050919050565b60006100fb6100f66100f1846100c2565b6100d6565b6100cc565b9050919050565b61010b816100e0565b82525050565b6000819050919050565b600061013661013161012c84610111565b6100d6565b6100cc565b9050919050565b6101468161011b565b82525050565b60006040820190506101616000830185610102565b61016e602083018461013d565b939250505056fea2646970667358221220b4809b729bfa985120faeba31f4b102f119f72aee2a00cbd7709cbbf26aafa1664736f6c634300080d0033",
			"opcodes": "PUSH1 0x80 PUSH1 0x40 MSTORE CALLVALUE DUP1 ISZERO PUSH2 0x10 JUMPI PUSH1 0x0 DUP1 REVERT JUMPDEST POP PUSH2 0x1AB DUP1 PUSH2 0x20 PUSH1 0x0 CODECOPY PUSH1 0x0 RETURN INVALID PUSH1 0x80 PUSH1 0x40 MSTORE CALLVALUE DUP1 ISZERO PUSH2 0x10 JUMPI PUSH1 0x0 DUP1 REVERT JUMPDEST POP PUSH1 0x4 CALLDATASIZE LT PUSH2 0x36 JUMPI PUSH1 0x0 CALLDATALOAD PUSH1 0xE0 SHR DUP1 PUSH4 0x2F7643A8 EQ PUSH2 0x3B JUMPI DUP1 PUSH4 0xC9E76A58 EQ PUSH2 0x45 JUMPI JUMPDEST PUSH1 0x0 DUP1 REVERT JUMPDEST PUSH2 0x43 PUSH2 0x4F JUMP JUMPDEST STOP JUMPDEST PUSH2 0x4D PUSH2 0x81 JUMP JUMPDEST STOP JUMPDEST PUSH1 0x40 MLOAD PUSH32 0x82B4290000000000000000000000000000000000000000000000000000000000 DUP2 MSTORE PUSH1 0x4 ADD PUSH1 0x40 MLOAD DUP1 SWAP2 SUB SWAP1 REVERT JUMPDEST PUSH1 0x3 PUSH1 0xC PUSH1 0x40 MLOAD PUSH32 0x8DEA797F00000000000000000000000000000000000000000000000000000000 DUP2 MSTORE PUSH1 0x4 ADD PUSH2 0xB9 SWAP3 SWAP2 SWAP1 PUSH2 0x14C JUMP JUMPDEST PUSH1 0x40 MLOAD DUP1 SWAP2 SUB SWAP1 REVERT JUMPDEST PUSH1 0x0 DUP2 SWAP1 POP SWAP2 SWAP1 POP JUMP JUMPDEST PUSH1 0x0 DUP2 SWAP1 POP SWAP2 SWAP1 POP JUMP JUMPDEST PUSH1 0x0 DUP2 SWAP1 POP SWAP2 SWAP1 POP JUMP JUMPDEST PUSH1 0x0 PUSH2 0xFB PUSH2 0xF6 PUSH2 0xF1 DUP5 PUSH2 0xC2 JUMP JUMPDEST PUSH2 0xD6 JUMP JUMPDEST PUSH2 0xCC JUMP JUMPDEST SWAP1 POP SWAP2 SWAP1 POP JUMP JUMPDEST PUSH2 0x10B DUP2 PUSH2 0xE0 JUMP JUMPDEST DUP3 MSTORE POP POP JUMP JUMPDEST PUSH1 0x0 DUP2 SWAP1 POP SWAP2 SWAP1 POP JUMP JUMPDEST PUSH1 0x0 PUSH2 0x136 PUSH2 0x131 PUSH2 0x12C DUP5 PUSH2 0x111 JUMP JUMPDEST PUSH2 0xD6 JUMP JUMPDEST PUSH2 0xCC JUMP JUMPDEST SWAP1 POP SWAP2 SWAP1 POP JUMP JUMPDEST PUSH2 0x146 DUP2 PUSH2 0x11B JUMP JUMPDEST DUP3 MSTORE POP POP JUMP JUMPDEST PUSH1 0x0 PUSH1 0x40 DUP3 ADD SWAP1 POP PUSH2 0x161 PUSH1 0x0 DUP4 ADD DUP6 PUSH2 0x102 JUMP JUMPDEST PUSH2 0x16E PUSH1 0x20 DUP4 ADD DUP5 PUSH2 0x13D JUMP JUMPDEST SWAP4 SWAP3 POP POP POP JUMP INVALID LOG2 PUSH5 0x6970667358 0x22 SLT KECCAK256 0xB4 DUP1 SWAP12 PUSH19 0x9BFA985120FAEBA31F4B102F119F72AEE2A00C 0xBD PUSH24 0x9CBBF26AAFA1664736F6C634300080D0033000000000000 "
		},
		"gasEstimates": {
			"creation": {
				"codeDepositCost": "85400",
				"executionCost": "135",
				"totalCost": "85535"
			},
			"external": {
				"throwError()": "158",
				"throwErrorWithParameters()": "infinite"
			}
		},
		"methodIdentifiers": {
			"throwError()": "2f7643a8",
			"throwErrorWithParameters()": "c9e76a58"
		}
	},
	"abi": [
		{
			"inputs": [],
			"name": "Unauthorized",
			"type": "error"
		},
		{
			"inputs": [
				{
					"internalType": "uint256",
					"name": "available",
					"type": "uint256"
				},
				{
					"internalType": "uint256",
					"name": "required",
					"type": "uint256"
				}
			],
			"name": "UnauthorizedParams",
			"type": "error"
		},
		{
			"inputs": [],
			"name": "throwError",
			"outputs": [],
			"stateMutability": "pure",
			"type": "function"
		},
		{
			"inputs": [],
			"name": "throwErrorWithParameters",
			"outputs": [],
			"stateMutability": "pure",
			"type": "function"
		}
	]
}